:040000006EEF0FF0A0
:1010000000D300940082004B00FF00000000FF00AE
:101010000000FFFF00008CFF000000FF00FFFFFF4B
:10102000008080800000000000C7C5C4C3C2C1C0EA
:10103000B4B3B2B13A3938363534302C2B2A29289A
:10104000261312111001008080A080202100F7ECEF
:101050000EF0AAEC0BF0000E236E000E296E000EAF
:10106000286E480EF66E100EF76E0800F5CF07F0EA
:10107000000E086E470EF66E100EF76E0800F5CFE4
:1010800009F0190EF66E100EF76E0900F5CF0AF092
:101090000900F5CF0BF00900F5CF0CF00A00F5CFF1
:1010A0000DF0000E30EC0DF0330E226EBB0E216EF3
:1010B000E00EE82EFED7212EFCD7222EFAD7120EF4
:1010C000076E000E086E470EF66E100EF76E0800E3
:1010D000F5CF09F0190EF66E100EF76E0900F5CF78
:1010E0000AF00900F5CF0BF00900F5CF0CF00A006B
:1010F000F5CF0DF0000E30EC0DF0240E076E000E53
:10110000086E470EF66E100EF76E0800F5CF09F068
:10111000150EF66E100EF76E0900F5CF0AF00900F5
:10112000F5CF0BF00900F5CF0CF00A00F5CF0DF06C
:10113000120E30EC0DF0360E076E000E086E470EE4
:10114000F66E100EF76E0800F5CF09F0110EF66E70
:10115000100EF76E0900F5CF0AF00900F5CF0BF07D
:101160000900F5CF0CF00A00F5CF0DF0240E30EC9D
:101170000DF0480E076E000E086E470EF66E100E4C
:10118000F76E0800F5CF09F00D0EF66E100EF76E33
:101190000900F5CF0AF00900F5CF0BF00900F5CFF3
:1011A0000CF00A00F5CF0DF0360E30EC0DF05A0EB3
:1011B000076E000E086E470EF66E100EF76E0800F2
:1011C000F5CF09F0090EF66E100EF76E0900F5CF97
:1011D0000AF00900F5CF0BF00900F5CF0CF00A007A
:1011E000F5CF0DF0480E30EC0DF06C0E076E000ED2
:1011F000086E470EF66E100EF76E0800F5CF09F078
:10120000050EF66E100EF76E0900F5CF0AF0090014
:10121000F5CF0BF00900F5CF0CF00A00F5CF0DF07B
:101220005A0E30EC0DF0800E076E000E086E470E61
:10123000F66E100EF76E0800F5CF09F0010EF66E8F
:10124000100EF76E0900F5CF0AF00900F5CF0BF08C
:101250000900F5CF0CF00A00F5CF0DF06C0E30EC64
:101260000DF01A0E226E5E0E216E6E0EE82EFED767
:10127000212EFCD7222EFAD700D0010E046E4C0E80
:10128000F66E100EF76E0800F55035EC0FF01A0EE2
:10129000226E5E0E216E6E0EE82EFED7212EFCD73A
:1012A000222EFAD700D0010E046E4B0EF66E100EF1
:1012B000F76E0800F55035EC0FF01A0E226E5E0E38
:1012C000216E6E0EE82EFED7212EFCD7222EFAD7E5
:1012D00000D0000E1A6E1D0EF66E100EF76E09008D
:1012E000F5CF1BF00900F5CF1CF00900F5CF1DF07C
:1012F0000A00F5CF1EF0000E6AEC0EF01A0E226EF8
:101300005E0E216E6E0EE82EFED7212EFCD7222E09
:10131000FAD700D0000E1A6E1D0EF66E100EF76E84
:101320000900F5CF1BF00900F5CF1CF00900F5CF3F
:101330001DF00A00F5CF1EF0480EF66E100EF76E87
:101340000800F5506AEC0EF01A0E226E5E0E216E49
:101350006E0EE82EFED7212EFCD7222EFAD700D013
:10136000470EF66E100EF76E0800F5CF1AF01D0E40
:10137000F66E100EF76E0900F5CF1BF00900F5CFE1
:101380001CF00900F5CF1DF00A00F5CF1EF0480E45
:10139000F66E100EF76E0800F5506AEC0EF01A0E9D
:1013A000226E5E0E216E6E0EE82EFED7212EFCD729
:1013B000222EFAD700D0470EF66E100EF76E0800F8
:1013C000F5CF1AF01D0EF66E100EF76E0900F5CF70
:1013D0001BF00900F5CF1CF00900F5CF1DF00A0045
:1013E000F5CF1EF0000E6AEC0EF01A0E226E5E0EA5
:1013F000216E6E0EE82EFED7212EFCD7222EFAD7B4
:1014000000D0000E296E480EF66E100EF76E090021
:10141000F550295CD8B082D029C009F00A6A000EC4
:10142000046E100E036E470EF66E100EF76E080077
:10143000F550016E026AF0EC0DF001C00BF002C035
:101440000CF032EC0EF009500A10D8A436D029C0A6
:1014500001F0026A080E046E000E036E49EC0FF0F4
:1014600001C024F002C025F0000E25BEFF0E266E3E
:10147000276E29C009F00A6A000E0C6E030E0B6E6F
:1014800032EC0EF00950210DF3CF1AF024C01BF0FE
:1014900025C01CF026C01DF027C01EF0470EF66EBA
:1014A000100EF76E0800F5CF21F02950080DF3500B
:1014B000000821246AEC0EF028D029C001F0026A4D
:1014C000080E046E000E036E49EC0FF001C024F00C
:1014D00002C025F0000E25BEFF0E266E276E470EB9
:1014E000F66E100EF76E0800F5CF21F029500008B7
:1014F00021241A6E24C01BF025C01CF026C01DF04C
:1015000027C01EF029506AEC0EF0820E216EDE0E0E
:10151000E82EFED7212EFCD7292A75D7000E286E7B
:10152000470EF66E100EF76E0900F550285CD8B025
:1015300028D0000E296E480EF66E100EF76E0900C8
:10154000F550295CD8B01BD028C01AF029502802C9
:10155000F33AF43AF00EF416F3500F0BF412F00EC7
:10156000F316F3CF1BF0F4CF1CF0000E1CBEFF0EE1
:101570001D6E1E6E29506AEC0EF0292ADCD7282A2F
:10158000CFD7000E286E470EF66E100EF76E0900CC
:10159000F550285CD8B033D0000E296E480EF66E98
:1015A000100EF76E0900F550295CD8B026D0080E51
:1015B0002924016E026A000E0222080E2824036EFE
:1015C000046A000E042249EC0FF001C024F002C0AE
:1015D00025F0000E25BEFF0E266E276E28C01AF0DD
:1015E00024C01BF025C01CF026C01DF027C01EF033
:1015F00029506AEC0EF0292AD1D7282AC4D7000E28
:10160000286E470EF66E100EF76E0900F550285C36
:10161000D8B024D0000E296E480EF66E100EF76E6C
:101620000900F550295CD8B017D028C01AF00D0E6B
:10163000F66E100EF76E0900F5CF1BF00900F5CF1E
:101640001CF00900F5CF1DF00A00F5CF1EF029505F
:101650006AEC0EF0292AE0D7282AD3D7480EF66E76
:10166000100EF76E0800F5CF07F0000E086E470E5B
:10167000F66E100EF76E0800F5CF09F0250EF66E27
:10168000100EF76E0900F5CF0AF00900F5CF0BF048
:101690000900F5CF0CF00A00F5CF0DF0000E30EC8C
:1016A0000DF0000E286E040E286401D03CD0000E10
:1016B000296E480EF66E100EF76E0900F550295C83
:1016C000D8B01FD028C01AF01D0EF66E100EF76E9F
:1016D0000900F5CF1BF00900F5CF1CF00900F5CF8C
:1016E0001DF00A00F5CF1EF029506AEC0EF0410EF5
:1016F000216EEE0EE82EFED7212EFCD700D0292A2F
:10170000D8D7282AD0D7010EA1EC0EF021D0020E96
:10171000A1EC0EF01DD0030EA1EC0EF019D0000EBE
:10172000A1EC0EF015D02350030B216E226A22503B
:10173000000AD8A40DD02150000AD8B4E4D7010A79
:10174000D8B4E5D7030AD8B4E6D7010AD8B4E7D7A6
:10175000232A87D48C808C8295909592040E19EC64
:101760000FF0020E1B6E040E1A6EBA0EE82EFED794
:101770001A2EFCD71B2EFAD700D0010E046E450E90
:10178000F66E100EF76E0800F55035EC0FF0070EF0
:101790001B6E990E1A6E490EE82EFED71A2EFCD734
:1017A0001B2EFAD700F0010E046E430EF66E100EDB
:1017B000F76E0800F55035EC0FF0070E1B6E990E12
:1017C0001A6E490EE82EFED71A2EFCD71B2EFAD71A
:1017D00000F0010E046E330EF66E100EF76E080068
:1017E000F55035EC0FF0000E046E000E35EC0FF0E6
:1017F000000E046E060E35EC0FF0000E046E030EA4
:1018000035EC0FF0010E046E320EF66E100EF76E10
:101810000800F55035EC0FF0000E046E010E35ECAB
:101820000FF0000E046E2C0E35EC0FF0000E046E5F
:101830002D0E35EC0FF0010E046E310EF66E100E0B
:10184000F76E0800F55035EC0FF0000E046E010E37
:1018500035EC0FF0000E046E2C0E35EC0FF0000E80
:10186000046E2D0E35EC0FF0010E046E300EF66E88
:10187000100EF76E0800F55035EC0FF0000E046EF8
:10188000000E35EC0FF0010E046E2F0EF66E100EEA
:10189000F76E0800F55035EC0FF0000E046EA20E46
:1018A00035EC0FF0000E046E020E35EC0FF0000E5A
:1018B000046E840E35EC0FF0010E046E2E0EF66EE3
:1018C000100EF76E0800F55035EC0FF0000E046EA8
:1018D000C50E35EC0FF0010E046E2D0EF66E100ED7
:1018E000F76E0800F55035EC0FF0000E046E0A0E8E
:1018F00035EC0FF0000E046E000E35EC0FF0010E0B
:10190000046E2C0EF66E100EF76E0800F55035ECD6
:101910000FF0000E046E8A0E35EC0FF0000E046E10
:101920002A0E35EC0FF0010E046E2B0EF66E100E23
:10193000F76E0800F55035EC0FF0000E046E8A0EBD
:1019400035EC0FF0000E046E2A0E35EC0FF0010E90
:10195000046E2A0EF66E100EF76E0800F55035EC88
:101960000FF0000E046E3C0E35EC0FF0010E046E0D
:101970004B0EF66E100EF76E0800F55035EC0FF0BA
:10198000120ECFEC0EF0010E046E400EF66E100E2D
:10199000F76E0800F55035EC0FF0000E046E010EE6
:1019A00035EC0FF0010E046E360EF66E100EF76E6B
:1019B0000800F55035EC0FF0010E046E410EF66E86
:1019C000100EF76E0800F55035EC0FF02A8C2A8EB9
:1019D0002A8A2A982A962A94010E046E370EF66EE9
:1019E000100EF76E0800F55035EC0FF0000E046E87
:1019F0002A5035EC0FF0480EF66E100EF76E080008
:101A0000F5CF07F0000E086E470EF66E100EF76E5B
:101A10000800F5CF09F0250EF66E100EF76E0900DE
:101A2000F5CF0AF00900F5CF0BF00900F5CF0CF067
:101A30000A00F5CF0DF0000E30EC0DF0010E046E33
:101A40003E0EF66E100EF76E0800F55035EC0FF0F6
:101A5000820E1A6EDE0EE82EFED71A2EFCD712006A
:101A6000196E2ABC2AAA05D0030E0826030E0926E1
:101A700015D02AAE08D0020E0826020E0926030E43
:101A80001926030E0ED02AAC07D0020E0826020E2D
:101A90000926192A072A06D0082A092A020E192619
:101AA000020E0726010E046E3C0EF66E100EF76E47
:101AB0000800F55035EC0FF0000E046E000E35EC0A
:101AC0000FF0000E046E195035EC0FF0000E046E8E
:101AD000000E35EC0FF0000E046E070435EC0FF02D
:101AE000010E046E3D0EF66E100EF76E0800F550F6
:101AF00035EC0FF0000E046E000E35EC0FF0000E0A
:101B0000046E085035EC0FF0000E046E000E35EC3C
:101B10000FF0000E046E090435EC0FF0010E046E98
:101B20003B0EF66E100EF76E0800F55035EC0FF018
:101B300019500718D8A414D008500918D8A410D0E8
:101B4000000E046E0A5035EC0FF0000E046E0B50C0
:101B500035EC0FF0000E046E0C5035EC0FF0120057
:101B600019500E6E0F6A0E1E0F1E0E4A0F2A0750D6
:101B70000E24016E000E0F20026E0850106E116AC6
:101B8000101E111E104A112A09501024036E000E57
:101B90001120046E49EC0FF001C012F002C013F0E6
:101BA0000AC016F00BC017F00CC018F08C908C8295
:101BB000000E156E000E146E0BD0165074EC0FF064
:101BC000175074EC0FF0185074EC0FF0144A152AEB
:101BD0001250145C13501558D8A0EFD78C80120007
:101BE000000E066E04AE06D0036C041ED8B0042AA4
:101BF000010E066E02AE06D0016C021ED8B0022A9B
:101C0000010E061A000E086E000E076E0350041037
:101C1000D8B41CD0010E056E04D0D890033604361B
:101C2000052A04AEFAD7D890073608360350015C6F
:101C300004500258D8A005D00350015E0450025A47
:101C40000780D89004320332052EEDD70650D8B461
:101C500004D0076C081ED8B0082A07C001F008C0DD
:101C600002F01200000E0E6E0AAE06D0096C0A1EBB
:101C7000D8B00A2A010E0E6E0CAE04D00B6C0C1EEE
:101C8000D8B00C2A0B500C10D8B418D0010E0D6E21
:101C900004D0D8900B360C360D2A0CAEFAD70B5068
:101CA000095C0C500A58D8A004D00B50095E0C50A7
:101CB0000A5AD8900C320B320D2EF1D70E50D8B4F0
:101CC00004D0096C0A1ED8B00A2A09C009F00AC05B
:101CD0000AF01200206E480EF66E100EF76E090024
:101CE000F550205CD8A009D0480EF66E100EF76EA5
:101CF0000800F5CF1FF01F04206E470EF66E100E81
:101D0000F76E0900F5501A5CD8A009D0480EF66E9F
:101D1000100EF76E0800F5CF1FF01F041A6E20C0DA
:101D200007F01AC008F01AC009F01BC00AF01CC066
:101D30000BF01DC00CF01EC00DF0205030EC0DF06B
:101D40001200076E0ED02A8E2A9C05D02A9E2A9C4D
:101D500006D02A9E2A8C2A9A12D02A8E2A8C2A8A67
:101D60000ED00750000AD8B4F8D7010AD8B4EBD780
:101D7000030AD8B4EBD7010AD8B4EBD7EED7010EDB
:101D8000046E370EF66E100EF76E0800F55035EC47
:101D90000FF0000E046E2A5035EC0FF01200076EA3
:101DA0000DD0000E096E030E03D0000E096E050E55
:101DB000086E0DD0000E096E060EFAD707500C0AF9
:101DC000D8B4EFD71C0AD8B4F0D7020AF3D7010E63
:101DD000046E340EF66E100EF76E0800F55035ECFA
:101DE0000FF0000E046E085035EC0FF01200000EDC
:101DF000896E000E8A6E000E8B6E000E8C6E000EC9
:101E00008D6E000E926EF20E936E800E946E010E29
:101E1000956E040E966EF18E000EC26E0F0EC16EA0
:101E2000000EB56EB496B10EC06EF096F28CF29EB6
:101E30001200016EC69A000EC76E07D0110E03D0B5
:101E4000120E01D0100EC66E0BD00150040AD8B489
:101E5000F9D7140AD8B4F2D7500AD8B4F1D7F2D7C8
:101E6000949A94889496C68A1200066E0404D8B494
:101E700003D0056A052A01D0056A05468C5005186D
:101E8000FD0B05188C6E8C90065074EC0FF08C8056
:101E9000120001500302F3CF05F0F4CF06F0015019
:101EA0000402F350062602500302F350062605C032
:101EB00001F006C002F01200026E02C0C9FF9EB619
:101EC00002D0010E01D0000E016EC7B002D0010E8B
:101ED00001D0000E0110F3E1C95012002A6A000E71
:101EE000F86E000127EF08F0036E03505CEC0FF072
:021EF0001200DE
:020000040020DA
:08000000FFFFFFFFFFFFFFFF00
:020000040030CA
:0E000000FF061F1EFF8381FF0F400FE00F4021
:00000001FF
