:040000004CEF0FF0C2
:10100000008080800000000000FFFFFF00D30094FC
:101010000082004B00FF00000000FF000000FFFF07
:1010200000008CFF000000FF00C7C5C4C3C2C1C0E0
:10103000B4B3B2B13A3938363534302C2B2A29289A
:10104000262120131211100100A0808080008C80C6
:101050008C829590959297EC0BF0000E236E000E0B
:10106000296E000E286E4C0EF66E100EF76E0800FC
:10107000F5CF07F0000E086E4B0EF66E100EF76EF1
:101080000800F5CF09F0250EF66E100EF76E090078
:10109000F5CF0AF00900F5CF0BF00900F5CF0CF001
:1010A0000A00F5CF0DF0000EC5EC0CF00D0E226E0F
:1010B000AF0E216EB60EE82EFED7212EFCD7222EC3
:1010C000FAD700D0120E076E000E086E4B0EF66EA9
:1010D000100EF76E0800F5CF09F0250EF66E100E13
:1010E000F76E0900F5CF0AF00900F5CF0BF0090003
:1010F000F5CF0CF00A00F5CF0DF0000EC5EC0CF0AA
:10110000240E076E000E086E4B0EF66E100EF76E74
:101110000800F5CF09F0210EF66E100EF76E0900EB
:10112000F5CF0AF00900F5CF0BF00900F5CF0CF070
:101130000A00F5CF0DF0120EC5EC0CF0360E076E5E
:10114000000E086E4B0EF66E100EF76E0800F5CF0F
:1011500009F01D0EF66E100EF76E0900F5CF0AF0BD
:101160000900F5CF0BF00900F5CF0CF00A00F5CF20
:101170000DF0240EC5EC0CF0480E076E000E086E44
:101180004B0EF66E100EF76E0800F5CF09F0190E33
:10119000F66E100EF76E0900F5CF0AF00900F5CFD4
:1011A0000BF00900F5CF0CF00A00F5CF0DF0360E6C
:1011B000C5EC0CF05A0E076E000E086E4B0EF66E64
:1011C000100EF76E0800F5CF09F0150EF66E100E32
:1011D000F76E0900F5CF0AF00900F5CF0BF0090012
:1011E000F5CF0CF00A00F5CF0DF0480EC5EC0CF071
:1011F0006C0E076E000E086E4B0EF66E100EF76E3C
:101200000800F5CF09F0110EF66E100EF76E09000A
:10121000F5CF0AF00900F5CF0BF00900F5CF0CF07F
:101220000A00F5CF0DF05A0EC5EC0CF0800E076EDB
:10123000000E086E4B0EF66E100EF76E0800F5CF1E
:1012400009F00D0EF66E100EF76E0900F5CF0AF0DC
:101250000900F5CF0BF00900F5CF0CF00A00F5CF2F
:101260000DF06C0EC5EC0CF0070E226E580E216EC0
:101270005A0EE82EFED7212EFCD7222EFAD736ECB6
:101280000FF0070E226E580E216E5A0EE82EFED772
:10129000212EFCD7222EFAD715EC0FF0070E226E66
:1012A000580E216E5A0EE82EFED7212EFCD7222E84
:1012B000FAD7000E1A6E090EF66E100EF76E0900C0
:1012C000F5CF1BF00900F5CF1CF00900F5CF1DF09C
:1012D0000A00F5CF1EF0000EF7EC0DF0070E226E9F
:1012E000580E216E5A0EE82EFED7212EFCD7222E44
:1012F000FAD7000E1A6E090EF66E100EF76E090080
:10130000F5CF1BF00900F5CF1CF00900F5CF1DF05B
:101310000A00F5CF1EF04C0EF66E100EF76E0800A8
:10132000F550F7EC0DF0070E226E580E216E5A0E96
:10133000E82EFED7212EFCD7222EFAD74B0EF66EC2
:10134000100EF76E0800F5CF1AF0090EF66E100EAB
:10135000F76E0900F5CF1BF00900F5CF1CF009006E
:10136000F5CF1DF00A00F5CF1EF04C0EF66E100EF4
:10137000F76E0800F550F7EC0DF0070E226E580ED0
:10138000216E5A0EE82EFED7212EFCD7222EFAD738
:101390004B0EF66E100EF76E0800F5CF1AF0090E20
:1013A000F66E100EF76E0900F5CF1BF00900F5CFB1
:1013B0001CF00900F5CF1DF00A00F5CF1EF0000E5D
:1013C000F7EC0DF0070E226E580E216E5A0EE82E25
:1013D000FED7212EFCD7222EFAD7000E296E4C0EF6
:1013E000F66E100EF76E0900F550295CD8B083D068
:1013F00029C009F00A6A000E046E100E036E4B0E2F
:10140000F66E100EF76E0800F550016E026A7DEC64
:101410000DF001C00BF002C00CF0BFEC0DF0095054
:101420000A10D8A436D029C001F0026A080E046E52
:10143000000E036ED5EC0EF001C024F002C025F0C2
:10144000000E25BEFF0E266E276E29C009F00A6A1F
:10145000000E0C6E030E0B6EBFEC0DF00950210D4B
:10146000F3CF1AF024C01BF025C01CF026C01DF0DD
:1014700027C01EF04B0EF66E100EF76E0800F5CF6B
:1014800021F02950080DF35000082124F7EC0DF04D
:1014900028D029C001F0026A080E046E000E036E07
:1014A000D5EC0EF001C024F002C025F0000E25BEE0
:1014B000FF0E266E276E4B0EF66E100EF76E0800AE
:1014C000F5CF21F02950000821241A6E24C01BF00A
:1014D00025C01CF026C01DF027C01EF02950F7ECD7
:1014E0000DF0210E216E760EE82EFED7212EFCD7B0
:1014F00000D0292A74D7000E286E4B0EF66E100EFF
:10150000F76E0900F550285CD8B028D0000E296E7F
:101510004C0EF66E100EF76E0900F550295CD8B02F
:101520001BD028C01AF029502802F33AF43AF00EE2
:10153000F416F3500F0BF412F00EF316F3CF1BF06A
:10154000F4CF1CF0000E1CBEFF0E1D6E1E6E295047
:10155000F7EC0DF0292ADCD7282ACFD7000E286E09
:101560004B0EF66E100EF76E0900F550285CD8B0E1
:1015700033D0000E296E4C0EF66E100EF76E090079
:10158000F550295CD8B026D0080E2924016E026AD5
:10159000000E0222080E2824036E046A000E0422A4
:1015A000D5EC0EF001C024F002C025F0000E25BEDF
:1015B000FF0E266E276E28C01AF024C01BF025C02F
:1015C0001CF026C01DF027C01EF02950F7EC0DF0CE
:1015D000292AD1D7282AC4D7000E286E4B0EF66EC2
:1015E000100EF76E0900F550285CD8B024D0000E1C
:1015F000296E4C0EF66E100EF76E0900F550295C40
:10160000D8B017D028C01AF0190EF66E100EF76E6B
:101610000900F5CF1BF00900F5CF1CF00900F5CF4C
:101620001DF00A00F5CF1EF02950F7EC0DF0292A25
:10163000E0D7282AD3D74C0EF66E100EF76E0800AE
:10164000F5CF07F0000E086E4B0EF66E100EF76E1B
:101650000800F5CF09F0050EF66E100EF76E0900C2
:10166000F5CF0AF00900F5CF0BF00900F5CF0CF02B
:101670000A00F5CF0DF0000EC5EC0CF0000E286E40
:10168000040E286401D03CD0000E296E4C0EF66E7C
:10169000100EF76E0900F550295CD8B01FD028C095
:1016A0001AF0090EF66E100EF76E0900F5CF1BF05A
:1016B0000900F5CF1CF00900F5CF1DF00A00F5CFA9
:1016C0001EF02950F7EC0DF0110E216E3A0EE82EA7
:1016D000FED7212EFCD700D0292AD8D7282AD0D748
:1016E000010E56EC0EF021D0030E56EC0EF01DD07C
:1016F000020E56EC0EF019D0000E56EC0EF015D07E
:101700002350030B216E226A2250000AD8A40DD068
:101710002150000AD8B4E4D7010AD8B4E5D7030AA7
:10172000D8B4E6D7010AD8B4E7D7232A9CD48C8052
:101730008C8295909592040E77EC0EF0410E1A6E05
:10174000EE0EE82EFED71A2EFCD700D093EC0EF04A
:10175000AAEC0EF0010E046E330EF66E100EF76E4C
:101760000800F550C1EC0EF0000E046E000EC1EC46
:101770000EF0000E046E060EC1EC0EF0000E046EAC
:10178000030EC1EC0EF0010E046E320EF66E100E5A
:10179000F76E0800F550C1EC0EF0000E046E010E5D
:1017A000C1EC0EF0000E046E2C0EC1EC0EF0000E1B
:1017B000046E2D0EC1EC0EF0010E046E310EF66EAD
:1017C000100EF76E0800F550C1EC0EF0000E046E1E
:1017D000010EC1EC0EF0000E046E2C0EC1EC0EF0EA
:1017E000000E046E2D0EC1EC0EF0010E046E300ED4
:1017F000F66E100EF76E0800F550C1EC0EF0000EFC
:10180000046E000EC1EC0EF0010E046E2F0EF66E8B
:10181000100EF76E0800F550C1EC0EF0000E046ECD
:10182000A20EC1EC0EF0000E046E020EC1EC0EF022
:10183000000E046E840EC1EC0EF0010E046E2E0E2E
:10184000F66E100EF76E0800F550C1EC0EF0000EAB
:10185000046EC50EC1EC0EF0010E046E2D0EF66E78
:10186000100EF76E0800F550C1EC0EF0000E046E7D
:101870000A0EC1EC0EF0000E046E000EC1EC0EF06C
:10188000010E046E2C0EF66E100EF76E0800F55069
:10189000C1EC0EF0000E046E8A0EC1EC0EF0000ECC
:1018A000046E2A0EC1EC0EF0010E046E2B0EF66EC5
:1018B000100EF76E0800F550C1EC0EF0000E046E2D
:1018C0008A0EC1EC0EF0000E046E2A0EC1EC0EF072
:1018D000010E046E2A0EF66E100EF76E0800F5501B
:1018E000C1EC0EF0000E046E3C0EC1EC0EF015ECD7
:1018F0000FF0120E2EEC0EF0010E046E400EF66E7E
:10190000100EF76E0800F550C1EC0EF0000E046EDC
:10191000010EC1EC0EF020EC0FF00AEC0FF02A8C57
:101920002A8E2A8A2A982A962A94FAEC0EF04C0ECD
:10193000F66E100EF76E0800F5CF07F0000E086E79
:101940004B0EF66E100EF76E0800F5CF09F0050E7F
:10195000F66E100EF76E0900F5CF0AF00900F5CF0C
:101960000BF00900F5CF0CF00A00F5CF0DF0000EDA
:10197000C5EC0CF02BEC0FF0210E1A6E760EE82E53
:10198000FED71A2EFCD700D01200196E2ABC2AAA44
:1019900005D0030E0826030E092615D02AAE08D05E
:1019A000020E0826020E0926030E1926030E0ED07B
:1019B0002AAC07D0020E0826020E0926192A072A89
:1019C00006D0082A092A020E1926020E0726010E41
:1019D000046E3C0EF66E100EF76E0800F550C1EC6A
:1019E0000EF0000E046E000EC1EC0EF0000E046E40
:1019F0001950C1EC0EF0000E046E000EC1EC0EF09A
:101A0000000E046E0704C1EC0EF0010E046E3D0ED4
:101A1000F66E100EF76E0800F550C1EC0EF0000ED9
:101A2000046E000EC1EC0EF0000E046E0850C1EC06
:101A30000EF0000E046E000EC1EC0EF0000E046EEF
:101A40000904C1EC0EF041EC0FF019500718D8A4AE
:101A500014D008500918D8A410D0000E046E0A50F3
:101A6000C1EC0EF0000E046E0B50C1EC0EF0000E37
:101A7000046E0C50C1EC0EF0120019500E6E0F6A7D
:101A80000E1E0F1E0E4A0F2A07500E24016E000E66
:101A90000F20026E0850106E116A101E111E104A9F
:101AA000112A09501024036E000E1120046ED5EC8B
:101AB0000EF001C012F002C013F00AC016F00BC005
:101AC00017F00CC018F08C908C82000E156E000E72
:101AD000146E0BD0165052EC0FF0175052EC0FF062
:101AE000185052EC0FF0144A152A1250145C13507F
:101AF0001558D8A0EFD78C801200000E066E04AEE9
:101B000006D0036C041ED8B0042A010E066E02AE85
:101B100006D0016C021ED8B0022A010E061A000E71
:101B2000086E000E076E03500410D8B41CD0010ECE
:101B3000056E04D0D89003360436052A04AEFAD7D1
:101B4000D890073608360350015C04500258D8A0DC
:101B500005D00350015E0450025A0780D890043229
:101B60000332052EEDD70650D8B404D0076C081EFA
:101B7000D8B0082A07C001F008C002F01200000E19
:101B80000E6E0AAE06D0096C0A1ED8B00A2A010EE3
:101B90000E6E0CAE04D00B6C0C1ED8B00C2A0B5081
:101BA0000C10D8B418D0010E0D6E04D0D8900B369E
:101BB0000C360D2A0CAEFAD70B50095C0C500A58A3
:101BC000D8A004D00B50095E0C500A5AD8900C32A1
:101BD0000B320D2EF1D70E50D8B404D0096C0A1E6A
:101BE000D8B00A2A09C009F00AC00AF01200206E13
:101BF0004C0EF66E100EF76E0900F550205CD8A062
:101C000009D04C0EF66E100EF76E0800F5CF1FF0DF
:101C10001F04206E4B0EF66E100EF76E0900F55085
:101C20001A5CD8A009D04C0EF66E100EF76E0800A4
:101C3000F5CF1FF01F041A6E20C007F01AC008F07D
:101C40001AC009F01BC00AF01CC00BF01DC00CF03C
:101C50001EC00DF02050C5EC0CF01200076E0DD028
:101C6000000E096E030E03D0000E096E050E086EFD
:101C70000DD0000E096E060EFAD707500C0AD8B424
:101C8000EFD71C0AD8B4F0D7020AF3D7010E046EBE
:101C9000340EF66E100EF76E0800F550C1EC0EF023
:101CA000000E046E0850C1EC0EF01200076E0ED04C
:101CB0002A8E2A9C05D02A9E2A9C06D02A9E2A8CEF
:101CC0002A9A12D02A8E2A8C2A8A0ED00750000A0D
:101CD000D8B4F8D7010AD8B4EBD7030AD8B4EED7F2
:101CE000010AD8B4E8D7EED7FAEC0EF01200016E74
:101CF000C69A000EC76E07D0100E03D0120E01D088
:101D0000110EC66E0BD00150040AD8B4F5D7140AD0
:101D1000D8B4F6D7500AD8B4F1D7F2D7949A9488A9
:101D20009496C68A1200010E046E470EF66E100ECF
:101D3000F76E0800F550C1EC0EF0020E086EA70E0B
:101D4000076E100EE82EFED7072EFCD7082EFAD706
:101D500000D01200010E046E450EF66E100EF76EE6
:101D60000800F550C1EC0EF0020E086EA70E076ECB
:101D7000100EE82EFED7072EFCD7082EFAD700D07B
:101D80001200066E0404D8B403D0056A052A01D0F7
:101D9000056A05468C500518FD0B05188C6E8C9055
:101DA000065052EC0FF08C80120001500302F3CF6A
:101DB00005F0F4CF06F001500402F350062602505D
:101DC0000302F350062605C001F006C002F012001F
:101DD000026E02C0C9FF9EB602D0010E01D0000EF5
:101DE000016EC7B002D0010E01D0000E0110F3E168
:101DF000C9501200010E046E370EF66E100EF76E0B
:101E00000800F550C1EC0EF0000E046E2A50C1EC33
:101E10000EF01200010E046E430EF66E100EF76EF9
:101E20000800F550C1EC0EF01200010E046E420ED7
:101E3000F66E100EF76E0800F550C1EC0EF01200B1
:101E4000010E046E360EF66E100EF76E0800F55099
:101E5000C1EC0EF01200010E046E3E0EF66E100E76
:101E6000F76E0800F550C1EC0EF01200010E046E82
:101E7000410EF66E100EF76E0800F550C1EC0EF034
:101E80001200010E046E3B0EF66E100EF76E080087
:101E9000F550C1EC0EF012002A6A000EF86E000137
:0E1EA00027EF08F0036E0350E8EC0EF012007E
:020000040020DA
:08000000FFFFFFFFFFFFFFFF00
:020000040030CA
:0E000000FF021F1EFF8381FF0F400FE00F4025
:00000001FF
